S01800006275696C642F6D6963617A2F6D61696E2E73726563E5
S11300000C9449000C948E050C9498050C94A2054C
S11300100C94AC050C94B6050C94C0050C945F0AC2
S11300200C94CA050C9468000C9468000C94AC0AF7
S11300300C949C150C9458050C946E050C940C06A9
S11300400C9447050C94750E0C9468000C9468008D
S11300500C9468000C9468000C9468000C9468007C
S11300600C9463050C9468000C9468000C9468006C
S11300700C9468000C9468000C9468000C9468005C
S11300800C9468000C9468000C94680000081C1818
S1130090141011241FBECFEFD0E1DEBFCDBF11E09D
S11300A0A0E0B1E0E2E9F0E300E00BBF02C007909A
S11300B00D92AE30B107D9F712E0AEE0B1E001C065
S11300C01D92A430B107E1F70E94E6130C9448187E
S11300D00C9400008FB7F894992708958FBF089562
S11300E08FB7F89499272BB332E023272BBB8FBF0C
S11300F00895662329F410921A010E94700008954D
S11301008FB7F89499272BB331E023272BBB8FBFEC
S11301100895FC0182819927582F442781819927CA
S1130120482B592BCA01892F992786958695837068
S113013090708230910559F08330910559F0892BE4
S113014019F420E030E008C02CE93FEF05C022E0BC
S113015030E002C028E030E0CA0184E0989F812D9D
S1130160992711248230910559F08330910559F073
S1130170892B19F480E090E008C08CE99FEF05C05A
S113018082E090E002C088E090E0280F391F2A5FE7
S11301903F4FCF01820F931F0895282F9FB7F894E4
S11301A0662349F0E82FFF27E657FE4F8081882316
S11301B011F021E006C0E22FFF27E657FE4F6083CF
S11301C020E0892F99278FBF822F99270895E82F40
S11301D08FB7F894282F332790E0FF27E657FE4F78
S11301E08081861709F491E02FBF892F99270895FC
S11301F0882311F06E9A08956E980895882311F05B
S11302006F9A08956F98089580E00E94F800BA9A52
S1130210BB98B99AB89A6C9A80E00E94FE006B98D9
S11302206A9881E00E94F800709A8DB18C7F8DB934
S113023008950F931F93CF93DF93182F8FB7F894DC
S1130240C82FDD270C2F61E080E00E94CD008823B9
S113025021F0CFBF85E090E024C080910501882380
S1130260A1F480911301823081F409C082E080936B
S11302701301109205010E940401B89AC0981093CA
S1130280020180E00FBF99270CC0809113018823DD
S113029069F38FB7F894992710928A018FBF81E090
S11302A0F1CFDF91CF911F910F910895282F9FB720
S11302B0F894E82FFF27E65CFE4F80818F3F81F49E
S11302C0E0910202E21771F40BC02093F40104C020
S11302D0FF27E65CFE4F20832093020220E007C044
S11302E025E005C08091F4018F3F91F7EECF892F6F
S11302F099278FBF822F992708951F93182F81E084
S11303000E94F8001FB9779BFECF8FB199271F91E8
S113031008958F929F92AF92BF92CF92DF92EF9205
S1130320FF920F931F93CF93DF938FB7F89499277E
S1130330C090FD01D090FE018090830190908401D3
S1130340C0917401D091750120911D0130911E015D
S1130350EAE0AE2EB12CAC0EBD1E2A153B0508F406
S113036059018FBF7401EC0EFD1E86010C0F1D1F79
S113037014C0C114D10419F0F801808101C080E0D7
S11303800E947D018114910411F0F701808321966C
S11303900894E11CF11C0F5F1F4FC5010197C8179A
S11303A0D90738F381E00E94FE009FB7F894C11486
S11303B0D10431F0CC0EDD1EF60180818FB901C06D
S11303C01FB8D0937501C0937401892F99278FBFEB
S11303D080E090E0DF91CF911F910F91FF90EF901B
S11303E0DF90CF90BF90AF909F908F9008952FB7DC
S11303F0F894332750931E0140931D019093FE01FE
S11304008093FD01709384016093830110927501C0
S1130410109274012FBF452B29F08FB10E948901DE
S11304209927089587E00E94560180E090E008959E
S11304308FB7F894992710928C018FBF08957FB7D6
S1130440F89462B72091200130912101409122015A
S11304505091230106B601FE0FC081B792B7280F51
S1130460311D411D511D2F5F3F4F4F4F5F4F290FCE
S1130470311D411D511D04C0260F311D411D511D4B
S1130480872F99278FBFCA01B9010895EF92FF9270
S11304900F931F93E0918201E1FF2BC020917A0119
S11304A030917B0140917C0150917D01E0907E016F
S11304B0F0907F010091800110918101621B730B08
S11304C0840B950B6E157F058007910790F0E0FF74
S11304D004C0ED7FE09382010CC02E0D3F1D401F30
S11304E0511F20937A0130937B0140937C015093F8
S11304F07D018BE00E9456011F910F91FF90EF90B8
S11305000895DF92EF92FF920F931F938FB7F894A1
S1130510282F3327D22E91B782B746B7981711F0F8
S113052041FF02C02FBF6AC0809173018823E1F1AB
S11305300E941F02E0908601F090870100918801DB
S11305401091890120913401309135014091360197
S1130550509137016E197F09800B910B6217730755
S11305608407950720F01092730171E01EC02E0DD0
S11305703F1D401F511F8091200190912101A091A6
S11305802201B0912301281B390B4A0B5B0B273E38
S113059031054105510540F4822F223010F070E0FE
S11305A005C070E082E002C070E086EE682F615002
S11305B000B601FCFDCF82B7681709F46F5F209184
S11305C02001309121014091220150912301DA014F
S11305D0C9010196A11DB11D860F911DA11DB11D5B
S11305E082179307A407B50710F4622F609561BFC3
S11305F0DFBE772319F08AE00E9456011F910F9104
S1130600FF90EF90DF900895AFB7F894BB27E1E037
S1130610E09373016093860170938701809388014E
S1130620909389012093340130933501409336012E
S113063050933701AFBF0E9481020895FC01878166
S113064046812FB7F8943327609106017091070112
S11306502FBF9927982F88275527842B952B8617EA
S1130660970719F481E090E010C08781268140E06B
S113067050E09927982F88273327822B932B8F5F5D
S11306809F4F11F441E050E0CA019927089580E892
S113069080933801109253011092F7011092F301E4
S11306A010924F010895CF93DF93FC0115A6DC014E
S11306B09E96ED011B821A82198280E886A7DF913B
S11306C0CF9108952F923F924F925F926F927F92B3
S11306D08F929F92AF92BF92CF92DF92EF92FF924E
S11306E00F931F93CF93DF93CDB7DEB728970FB641
S11306F0F894DEBF0FBECDBF2090590130905A014F
S113070040905B0150905C016624772488240EE4B9
S1130710A02E13E8B12ECC24DD24EE24FF2400E027
S113072010E0222D332D442D552D662D772D882D47
S113073090E00E942A1629833A834B835C836D835D
S11307407E838F839887822E932EA42EB52E240128
S1130750350100E20E942817A22EB32EC42ED52EF6
S1130760C301B20196958795779567956A0D7B1DB0
S11307708C1D9D1D97FF05C09F776F5F7F4F8F4F27
S11307809F4F6093590170935A0180935B0190933A
S11307905C0128960FB6F894DEBF0FBECDBFDF9183
S11307A0CF911F910F91FF90EF90DF90CF90BF906A
S11307B0AF909F908F907F906F905F904F903F90FD
S11307C02F9008958FB7F894609178017091790112
S11307D02CB53DB506B602FE04C06F5F7F4F2CB545
S11307E03DB599278FBF88279927CB01772766279F
S11307F044275527622B732B842B952B0895EF9256
S1130800FF920F931F930E94E2037B018C012091BE
S113081063013091640140916501509166018091BA
S11308205E0190915F01A0916001B0916101820F1E
S1130830931FA41FB51FE216F3060407150730F033
S113084082179307A407B50758F005C082179307CA
S1130850A407B507E0F5E816F9060A071B07B8F57B
S11308609C01AD012E193F09400B510B213060E86A
S1130870360760E0460760E0560768F180E090E8DC
S1130880A0E0B0E0E80EF91E0A1F1B1FE09263010E
S1130890F0926401009365011093660180E090E892
S11308A0AFEFBFEFE80EF91E0A1F1B1F20503048A0
S11308B04040504020935E0130935F0140936001BB
S11308C05093610120E030E840E050E014C020E0A3
S11308D030E040E050E08093630190936401A09382
S11308E06501B093660110925E0110925F0110924F
S11308F0600110926101A901B7012CB53DB5C90190
S11309008E199F0903968417950720F0B9016D5F2E
S11309107F4F02C0640F751F6115710511F461E00A
S113092070E0615070407BBD6ABD80E186BF87B7CF
S1130930806187BF1F910F91FF90EF9008950F93EF
S11309401F930FB7F89411276093630170936401A8
S1130950809365019093660120935E0130935F015B
S113096040936001509361010E94FF030FBF1F91E8
S11309700F910895CF92DF92EF92FF920F931F93FE
S1130980CF93DF938C01F62E6A01E22E8FB7F89491
S1130990C82FDD2760E080E00E94E700882321F073
S11309A0CFBF80E090E01EC0CFBF0F0D111D802F80
S11309B080680E947D01F82E16950795802F807C13
S11309C00E947D010E2D0AC0EE2DFF27E01BF109C8
S11309D0EC0DFD1D80810E947D0101500023A1F7D3
S11309E08F2D9927DF91CF911F910F91FF90EF9059
S11309F0DF90CF90089597B79F7D97BF90E296BF01
S1130A00882319F08EB5806402C08EB58F7B8EBDAD
S1130A1087B7806287BF80E090E008958FB7F8942D
S1130A2099272BB334E023272BBB8FBF0895AF92B4
S1130A30BF92CF92DF92EF92FF920F931F93CF93C7
S1130A40DF93CDB7DEB728970FB6F894DEBF0FBE9D
S1130A50CDBF20E070E0E0910001F091010132E1AE
S1130A604DE65CE46FE4809101019E2F28960FB659
S1130A70F894DEBF0FBECDBFDF91CF911F910F91D0
S1130A80FF90EF90DF90CF90BF90AF9008951F92AA
S1130A900F920FB60F9211248F9383B783BF00B6C2
S1130AA000FCFDCF8F910F900FBE0F901F901895F3
S1130AB078941F920F920FB60F9211240F900FBECD
S1130AC00F901F90189578941F920F920FB60F9263
S1130AD011240F900FBE0F901F90189578941F92B9
S1130AE00F920FB60F9211242F933F938F939F93DE
S1130AF02FB7F8943327809178019091790101966A
S1130B0090937901809378012FBF9F918F913F91AA
S1130B102F910F900FBE0F901F9018951F920F9258
S1130B200FB60F9211240F900FBE0F901F901895BF
S1130B301F920F920FB60F9211240F900FBE0F90B9
S1130B401F9018951F920F920FB60F9211240F90B9
S1130B500FBE0F901F9018951F920F920FB60F9211
S1130B6011240F900FBE0F901F9018951F920F9293
S1130B700FB60F9211240F900FBE0F901F9018956F
S1130B801F920F920FB60F9211240F900FBE0F9069
S1130B901F9018951F920F920FB60F9211240F9069
S1130BA00FBE0F901F901895CF93DF93CDB7DEB78C
S1130BB02C970FB6F894DEBF0FBECDBF8FB7F89455
S1130BC0282FAE014F5F5F4FDA01E0E9F1E088E0E2
S1130BD001900D928150E1F780915401909155015B
S1130BE08987892F99278A87809167019091680165
S1130BF08B87892F99278C872FBF2CE060E080E6B4
S1130C0091E00E94BA042C960FB6F894DEBF0FBE92
S1130C10CDBFDF91CF9108951F920F920FB60F921F
S1130C2011242F933F934F935F936F937F938F93ED
S1130C309F93AF93BF93EF93FF9383B783BF00B6A4
S1130C4000FCFDCF81B799270196AA27BB272091E5
S1130C502001309121014091220150912301280F5C
S1130C60391F4A1F5B1F20932001309321014093B9
S1130C7022015093230178940E948102FF91EF9105
S1130C80BF91AF919F918F917F916F915F914F91A0
S1130C903F912F910F900FBE0F901F9018950F93B7
S1130CA01F93182F0FB7F89461E080E00E94CD00E5
S1130CB0882371F510930201809105018823A9F519
S1130CC080911301823089F586E00CC00E940401F2
S1130CD080911301882349F481E0809313011092D9
S1130CE0500188E00E9456012AC0809162018F3F22
S1130CF031F5E0910401EE2311F11CC010920301BF
S1130D0004C0FF27EE59FE4F10821092040117C051
S1130D1081E090E002C0880F991F1A95E2F72091B4
S1130D201201282B209312010AC0809113018823F9
S1130D30E1F6CCCF809103018F3F19F7DFCF802FED
S1130D4099278FBF80E090E01F910F9108951F9322
S1130D5083E00E9419019927182F882319F083E052
S1130D600E944F06812F99271F91089561E081E029
S1130D700E94CD008823E9F48FB7F894282F3327F5
S1130D8080910F0190911001892B11F02FBF20C089
S1130D9081E090E09093100180930F012FBFDD9AC2
S1130DA00E94E20324E130E040E050E00E949F040E
S1130DB00FC062E081E00E94E700882319F089E017
S1130DC090E0089561E081E00E94E700882319F033
S1130DD080E090E0089585E090E008951F9380916D
S1130DE01201882309F04BC0109102011F3F09F042
S1130DF046C060E00E94E700882309F440C081E017
S1130E0080939901809139018823E1F1109299012D
S1130E1085E090E045C0923069F5C09A8091030165
S1130E2020E030E08F3F11F421E030E0232BE9F49F
S1130E30109305018F3F19F42FEF30E00DC0282FD8
S1130E403327F901EE59FE4F8081809303018F3FD0
S1130E5011F41093040110832093500181E08093D6
S1130E60130188E00E94560105C0109305011092F9
S1130E70130111C080911301882369F00FC081E030
S1130E8090E00EC08091050190911301882319F21E
S1130E90923021F0EFCF80E00E94F80080E090E0F3
S1130EA01F9108951F93CF93DF939FB7F894C92F91
S1130EB0DD271C2F90910201981721F0CFBF81E00C
S1130EC090E03AC08FEF80930201309112013323F6
S1130ED0F1F48FB7F894992710928A018FBF0E947A
S1130EE0EE06CFBF11C02093020181E090E002C062
S1130EF0880F991F4A95E2F78095382330931201A1
S1130F0086E00E9456011FBF80E090E015C080E09B
S1130F1065E0E32FFF270E94AB17292F492F5527A0
S1130F20CF01042E02C0959587950A94E2F780FDBF
S1130F30DACF822F8F5FEFCFDF91CF911F9108958A
S1130F40FF920F931F93CF93DF93F82E8B018FB7EC
S1130F50F894C82FDD2760E080E00E94E700882332
S1130F6021F0CFBF80E090E00CC0CFBF8F2D0E9456
S1130F707D01812F99270E947D01802F0E947D0190
S1130F809927DF91CF911F910F91FF9008951F939F
S1130F901FB7F89480914E01882319F460E070E043
S1130FA009C060E08091FC01882309F461E081E0DC
S1130FB06827772780915601882319F480E090E010
S1130FC00AC090E080918F01882309F491E081E0C8
S1130FD09827892F9927762F6627770F770F770F12
S1130FE0F4E0880F991FFA95E1F7826E9262682BFC
S1130FF0792B81E10E94A007812F99278FBF1F9130
S113100008958FB7F8949927609198018FBF85E070
S1131010689FB0011124625D7E4F706488E10E9474
S1131020A0070895EF92FF921F93CF93DF93E09070
S11310305701F0905801F70182A59927182F8823AA
S113104009F41FE1C09880914D01811749F0612F87
S113105077276F717070606E706885E10E94A007D9
S113106010934D01F70110818FB7F894C82FDD2735
S113107060E080E00E94E700882311F0CFBF12C037
S1131080CFBF8EE390E090936C0180936B018EE36D
S11310900E947D011150412F552760E070E0C70187
S11310A00E94F701DF91CF911F91FF90EF90089577
S11310B00F931F93CF93DF93EC010FB7F89411278D
S11310C00E948900FC018FE380830FBF1092FA0114
S11310D01092F90161E082E00E94CD00882319F0AA
S11310E085E090E072C080919A018F5F80939A01AD
S11310F081508B838FB7F894082F112762E081E029
S11311000E94E700882329F40FBF0E94180281E09F
S11311105BC08FB7F894992724E020938B018FBF8D
S1131120D0937201C09371010FBFFE01319681818A
S113113029819927982F88273327822B932B807214
S11311409C7C8983892F992781832981982F8827DB
S113115033272164822B932B8983892F99278183B9
S11311601CA618A619A619AA18AA1FA680E88EA755
S113117061E060938E0140917101509172018FB7CB
S1131180F894282F33278091140190911501883009
S1131190910511F0019711F02FBF15C082E090E086
S11311A090931501809314016093030250935801A6
S11311B04093570110921F012FBF0E94A706882356
S11311C011F40E94120880E09927DF91CF911F91BA
S11311D00F910895CF93DF93DA01422F2D3118F048
S11311E082E090E05EC0ED018B876E83872F9927A4
S11311F08F832FB7F8943327809154019091550130
S11312002FBFFD018483892F992785832FB7F894F5
S1131210332780910601909107012FBF8887892F7A
S1131220992789873196818129819927982F882741
S1131230332720643868822B932B8983892F99273D
S11312408183435F4C934D5080910901882359F069
S113125010920901642FCD010E9458089927282F64
S11312608823A9F417C0842F992790937001809341
S11312706F01B0931901A09318018CE00E945601EC
S113128080910901882349F489E090E00AC08FEF36
S113129080930901822F992704C010925D0180E098
S11312A090E0DF91CF9108950F931F93CF93DF9335
S11312B0182FEB01042FE82FFF27EE0FFF1FEA582A
S11312C0FE4F1182108210920C01E0917601F09190
S11312D07701309721F08091F80180FF0EC081E002
S11312E080930C0103C08EE00E9456011123B9F4CF
S11312F0602FCE010E94790012C020812D50332727
S113130067817727762F662786819927682B792B23
S1131310AF0183850E94EA08882341F3E4CFDF917B
S1131320CF911F910F9108959B0180910C01882307
S113133049F460917601709177016217730711F493
S11313400E94540908951F93CF93DF93182F8FB7EA
S1131350F894C82FDD2760E080E00E94E70088232E
S113136021F0CFBF80E090E005C0CFBF812F0E9465
S11313707D019927DF91CF911F910895EF92FF92FC
S11313800F931F93CF93DF93182F7B01042F8FB7F5
S1131390F894C82FDD2760E080E00E94E7008823EE
S11313A021F0CFBF80E090E014C0CFBF1064812F44
S11313B0992790936C0180936B010E947D01182FF3
S11313C0402F5527B70180E090E00E94F701812F5C
S11313D09927DF91CF911F910F91FF90EF9008957E
S11313E0C09860911B0170911C0141E08FE30E9441
S11313F0BE09089582E090E090934A0180934901E8
S113140081E08093530120E030E080910201843038
S113141011F421E030E0232B29F484E00E94190127
S1131420882319F40E94F009089584E00E944F066D
S113143008951F93CF93DF938FB7F894C82FDD27B8
S11314401C2F8091490190914A01892B29F484E051
S11314500E945207CFBF1EC01092530180914F01CA
S1131460882311F0B79904C00E9908C0882319F095
S1131470815080934F010E94FA090BC081E090E0F3
S113148090934A018093490110924F0184E00E9495
S113149052071FBFDF91CF911F9108950E94470308
S11314A0C09AC09888E00E94A30988E00E94A3091A
S11314B0C09A84E00E9452070E94190A08951F925C
S11314C00F920FB60F9211242F933F934F935F9374
S11314D06F937F938F939F93AF93BF93EF93FF93F8
S11314E08091490190914A01019749F482E090E08A
S11314F090934A01809349010E94FA0905C08091A2
S11315004F018F5F80934F01FF91EF91BF91AF9196
S11315109F918F917F916F915F914F913F912F9107
S11315200F900FBE0F901F9018951F93182F81E0F6
S113153090E09093150180931401109239010E9458
S1131540EE068FB7F894992710930E018FBF82E0AF
S11315500E9456011F91089578941F920F920FB61E
S11315600F9211242F923F924F925F926F927F922B
S11315708F929F92AF92BF92CF92DF92EF92FF929F
S11315800F931F932F933F934F935F936F937F9387
S11315908F939F93AF93BF93CF93DF93EF93FF9377
S11315A0C6B5D7B58FB7F894282E0E94E2039B01E5
S11315B02C1B3D0B442755272B013C01421A530A8F
S11315C0640A750A80911401909115018530910582
S11315D021F0069709F0E0C0BFC086E090E0909348
S11315E015018093140131E0332E30925201109290
S11315F0160180E00E94FB04E0915701F09158012C
S113160041AABB27A72D962D852D80ABC301AA2700
S1131610BB2787A7872D9927AA27BB2786A7E091F1
S11316205701F091580185A5882309F484C060818D
S1131630655077274F01860E971EF4012081E180C3
S11316408281A3809927AA27BB27BA2FA92F982F75
S11316508827332744275527522F44273327222707
S1131660FF24002711278701FF24EE242E293F2978
S1131670402B512BBB24CC24DD242A293B294C2983
S11316805D29822B932BA42BB52B84199509A609CC
S1131690B7098383292F3A2F4B2F552722839D0186
S11316A04427552721838B2F9927AA27BB2780837B
S11316B0C09824E0A40180E090E00E94BA04C09A9B
S11316C0F4012081E1808281A3809927AA27BB2786
S11316D0BA2FA92F982F8827332744275527522F0D
S11316E0442733272227FF24002711278701FF24BB
S11316F0EE242E293F29402B512BBB24CC24DD245E
S11317002A293B294C295D29822B932BA42BB52B09
S1131710840D951DA61DB71D8383292F3A2F4B2FAA
S1131720552722839D014427552721838B2F9927F1
S1131730AA27BB278083E0915701F091580181814A
S113174085FF02C03092390183E00E94520787B7B7
S11317508F7E87BF84997AC01092520181E00E94E3
S1131760FB04E0915701F0915801818185FF0FC07E
S113177087E090E090931501809314010E94E203A6
S113178020E031E040E050E00E949F0403C080E08C
S11317900E94950A849B5AC080911601882391F572
S11317A080915201882371F511E0109352010E9437
S11317B0FB0480B32091F301283098F4E091F70101
S11317C0E20FFF27E770F070EE0FFF1FEE0FFF1F11
S11317D0E156FE4F40825182628273822F5F2093D2
S11317E0F30110931601D0936E01C0936D01849997
S11317F02DC0992764E0969587956A95E1F7182F8F
S1131800117001C010E0809152018130F9F41092FE
S113181052010E94FB04109216011123B9F4809125
S11318206D0190916E01C81BD90B2A9778F48091B1
S1131830F301882319F081508093F30180915701BB
S113184090915801009711F00E9453032FBEFF910D
S1131850EF91DF91CF91BF91AF919F918F917F9144
S11318606F915F914F913F912F911F910F91FF9035
S1131870EF90DF90CF90BF90AF909F908F907F902C
S11318806F905F904F903F902F900F900FBE0F90EE
S11318901F901895CF92DF92EF92FF920F931F93B0
S11318A0CFB6F894DD240E946203DC01CB0166E428
S11318B070E00E94B7174BE0E42EF12CE80EF91EFD
S11318C0F0920002E092FF010E94E2030027112738
S11318D0A80197010E949F04CFBE1F910F91FF9012
S11318E0EF90DF90CF9008951F93CF93DF938FB73E
S11318F0F894C82FDD271C2F8091140190911501B5
S11319000897C9F489E00E94A30983E00E94520762
S1131910C09A81E090E090931501809314018FB7F1
S1131920F894992723E020930E018FBF82E00E9450
S11319305601CFBF30C0C09880910302882311F0B4
S113194085E001C084E00E94A30983FD09C080E012
S11319500E94A30983FF04C085E090E020E003C057
S113196083E090E021E09093150180931401C09AE4
S11319701FBF222341F010921F0183E00E945207EF
S11319800E944A0C08C00E94E20320E431E040E0D7
S113199050E00E949F04DF91CF911F910895EF9230
S11319A0FF920F931F93CF93DF938B0180916B0171
S11319B090916C0186FF40C18F7B8F3309F08EC1FB
S11319C0C0911B01D0911C01588150934B0180910F
S11319D0490190914A018530910509F443C086304C
S11319E0910509F48AC0029709F01FC185E090E0CF
S11319F090934A018093490140913801852F99279A
S1131A000196242F3327281739074CF1B79906C0BC
S1131A100E9904C0451B41504093380140914B013D
S1131A204A32E8F44423A1F0BE016F5F7F4F48308F
S1131A3018F047E050E007C086E090E090934A0138
S1131A4080934901552780E090E00E94F70146C148
S1131A5010925301C09A84E00E945207E3C00E948E
S1131A604E0A3CC186E090E090934A01809349017C
S1131A7080915601882309F439C080918F0188230D
S1131A80A9F5898185FF32C08F814E812FB7F894E3
S1131A90332760916701709168012FBF9927982FB0
S1131AA088275527842B952B8617970759F08F8104
S1131AB02E819927982F88273327822B932B8F5F8A
S1131AC09F4FA1F489818770813081F4C09AC098B6
S1131AD08AE00E94A309C09AC09840914B014750E4
S1131AE02896BE018FE30E94BE09F8C040914B01C5
S1131AF0475055272896BE01A6CFC09A80914F0122
S1131B00882339F484E00E94520780914F0188238E
S1131B1011F0B7990AC00E9B08C09091F301992364
S1131B2021F080914B018B3038F480911B0190910E
S1131B301C010E9453033DC0913001F5E091F7016F
S1131B40FF27EE0FFF1FEE0FFF1FE156FE4F208110
S1131B50318142815381E0911B01F0911C0121AB41
S1131B60BB27A52F942F832F80ABCA01AA27BB279D
S1131B7087A7252F33274427552726A78091F701C8
S1131B809927019668E070E00E94CB178093F701D3
S1131B908091F30181508093F301882351F0809167
S1131BA01B0190911C010E9453031092F7011092A3
S1131BB0F30180914B01FE01E80FF11D808187FF45
S1131BC031C0012B79F169816770E0911B01F091BB
S1131BD01C01623019F5A0915701B091580110977A
S1131BE009F180911401909115010797D9F4ED0141
S1131BF09B8183819817B1F487B78F7E87BF9081CB
S1131C0081E08CA7E90FF11D8291319688A780812C
S1131C108F7789A780E00E94950A04C0613011F48F
S1131C2089E02AC00E94190A59C010925301C09A2F
S1131C3084E00E94520752C08E3309F04FC0C09A0C
S1131C4080911401909115010897C9F4C09889E016
S1131C500E94A309C09A83E00E94520781E090E0A9
S1131C6090931501809314018FB7F894992723E07A
S1131C7020930E018FBF82E00E9456012FC08091F5
S1131C800302882349F484E090E090931501809343
S1131C9014010E94740C22C083E00E94520783E066
S1131CA090E090931501809314010E946203DC017B
S1131CB0CB0166E371E00E94B7175BE0E52EF12CDF
S1131CC0E80EF91EF0923301E09232010E94E20321
S1131CD000271127A80197010E949F04DF91CF914B
S1131CE01F910F91FF90EF9008951F920F920FB6DE
S1131CF00F9211242F933F934F935F936F937F938E
S1131D008F939F93AF93BF93EF93FF932FB1E09182
S1131D108301F0918401309739F08091740190919E
S1131D207501E80FF91F208380917401909175016A
S1131D300196909375018093740180E00E94FE00E7
S1131D4040911D0150911E01809174019091750183
S1131D508417950718F40E9489011CC060918301BF
S1131D60709184018091FD019091FE011092840193
S1131D70109283011092FE011092FD0110921E0137
S1131D8010921D0110927501109274012FB120E080
S1131D900E94CF0CFF91EF91BF91AF919F918F91D2
S1131DA07F916F915F914F913F912F910F900FBE53
S1131DB00F901F901895DF92EF92FF920F931F934D
S1131DC0CF93DF93CDB7DEB7A8970FB6F894DEBFF5
S1131DD00FBECDBF873009F4EFC1883098F483304B
S1131DE009F4D2C0843038F4813009F476C08230EA
S1131DF008F079C024C0853009F4E8C0863008F0C2
S1131E001EC1DDC08B3009F411C48C3038F4893024
S1131E1009F409C28A3008F0D6C3F1C18D3039F013
S1131E208D3008F450C48E3009F0A5C497C4809155
S1131E30F801882309F49FC490E011E06DC40FB742
S1131E40F894112781E00E94FB0461E0E62EF12C56
S1131E50F0921501E09214011092160110923901CA
S1131E6010924D010FBF0FB7F89411270E9447033A
S1131E70F0924A01E09249011092530189B78F7B95
S1131E8089BF80E488BF8AB780628ABF8AB78F7EA1
S1131E908ABF89B7806489BF0FBF8FB7F894082FB2
S1131EA0112780910F0190911001049719F483E098
S1131EB00E94A3090FBF0FB7F8941127C09A80E0BE
S1131EC00E9452070FBF8FB7F894992722E02093FE
S1131ED08B018FBF0E940E054EC48FB7F8949927CB
S1131EE010928B0171C08FB7F8949927F0900E016E
S1131EF08FBF63E081E00E94E700882359F10FB7A8
S1131F00F8941127109215011092140187B78F7E4F
S1131F1087BF87B78F7D87BF83E00E945207C09A2F
S1131F200FBF0FB7F894112710924A01109249017C
S1131F300E944703C09A89B78F7B89BF0FBF109255
S1131F40100110920F01DE98DD98DE9A81E00E9464
S1131F50560107C08FB7F894992722E020938B018C
S1131F608FBF00917101109172010E94180280913B
S1131F70F9019091FA01892B09F0FDC38FEF809349
S1131F8009014F2DB801BFC38FB7F894282F332709
S1131F90122F80910102882309F581E080930102C8
S1131FA080910F0190911001049721F481E00E9427
S1131FB04F0603C084E00E9456011FBFDCC38FB7E5
S1131FC0F8949927109201028FBFD5C38FB7F89464
S1131FD0282F332780911101882311F02FBFCBC301
S1131FE02FBF80B3992756E0969587955A95E1F7C8
S1131FF0182F11709091690180916A018917D9F0A5
S11320001917C9F484E090E09093100180930F01B4
S11320108FB7F894992721E0209311018FBF60E0D6
S113202070E08DE10E94A0070E94D405C09AC09878
S113203080E00E94560110936A0185E06DC08FB75D
S1132040F8949927109102018FBF123009F467C0E8
S1132050133030F4112359F0113009F08CC348C007
S1132060133009F476C0143009F085C3A2C0C098B7
S11320708FB7F894082F112780910F0190911001C8
S11320800297A1F583E090E09093100180930F01F3
S113209068E170E08DE10E94A00781E0809369010E
S11320A01092110180B3992746E0969587954A9539
S11320B0E1F78170907080936A0185E00E94560177
S11320C081E00E94A3096FE772E08CE10E94A007FF
S11320D00E9401080E94C70766E57AE287E10E9430
S11320E0A0076FEF70E885E10E94A0070FBF43C30C
S11320F0C09886E00E94A3090E9401080E94C707B5
S11321000E94D405C09AC09883E00E94A309C09A93
S113211081E00E94520784E00E9456012CC3C098BB
S11321208FB7F894082F112760E080E00E94E70041
S1132130882311F00FBF0AC00FBF83E50E947D0101
S113214080E00E947D0180E00E947D01C09A82E0CF
S11321502DC08FB7F8949927209114018FBF243094
S113216039F0283041F0223001F50E94120803C3EF
S11321700E94740C00C3C09889E00E94A309C09A0D
S113218083E00E9452078FB7F894992721E030E04A
S113219030931501209314018FBF8FB7F8949927BA
S11321A010930E018FBF82E0B7CF83E00E945207E5
S11321B0E2C20E94F009DFC20FB7F89411274091E0
S11321C01D0150911E0160918301709184018091E1
S11321D0FD019091FE0110928401109283011092EE
S11321E0FE011092FD0110921E0110921D01109229
S11321F075011092740120E00E94CF0C77CF2FB7A5
S1132200F8943327809150018093050182E08093F4
S113221013012FBF80910501882309F0ACC2B89A3D
S1132220C09886E079CFA0911B01B0911C01DC908D
S11322309D012D0D311DF9018081881F8827881F7C
S1132240FD0183A7F90180818F77FD0181A72150CA
S11322503040F9018081FD0180A7A0911B01B0915C
S11322601C01FD0132818FB7F894992720914E010A
S11322708FBF222309F490C0832F992796958795C1
S113228096958795837090708230910541F587818A
S113229046812FB7F89433276091670170916801E4
S11322A02FBF9927982F88275527842B952B86177E
S11322B0970719F481E090E06CC0FD0187812681C5
S11322C040E050E09927982F88273327822B932BBF
S11322D08F5F9F4F11F441E050E0CA015AC0039749
S11322E009F068C19E012F5F3F4F40E951E088E04B
S11322F0FA010190AF01F90101929F018150C1F7E8
S11323009E012F5D3F4FAE014F5F5F4F88E0FA01A2
S11323100190AF01F90101929F018150C1F79E0123
S1132320275F3F4FAE014F5D5F4F88E0FA01019098
S1132330AF01F90101929F018150C1F79E012F5E07
S11323403F4FAE01475F5F4F88E0FA010190AF0154
S1132350F90101929F018150C1F79E01275E3F4F11
S1132360AE014F5E5F4F88E0FA010190AF01F901C1
S113237001929F018150C1F748E050E0BE01675EC1
S11323807F4FCD0106960E943418892B09F012C1A3
S113239003C0882309F40EC1FCE0FD1508F00AC14E
S11323A0E0901B01F0901C01F7012281822F9927F4
S11323B016E0969587951A95E1F7039719F468E066
S11323C070E002C062E070E0822F992796958795AD
S11323D09695879583709070039719F488E090E040
S11323E002C082E090E026E030E0E20EF31E40E01E
S11323F050E020E030E0F701E80FF91F8AEF9FEF8B
S1132400E80EF91E05C08191480F511D2F5F3F4F03
S113241026173707C4F3F70163818FEF8093FB011D
S11324208FB7F894782F20E030E0E4E2F1E0808187
S113243091818417950729F48281861731F12093BD
S1132440FB012F5F3F4F33962430310581F77FBF67
S11324509091FB013FB7F8949F3F21F080911701C1
S11324608917A9F420911701822F9927FC01EE0FF7
S1132470FF1FE80FF91FEC5DFE4F51834083628319
S11324802F5F2370209317010EC07FBF8FC0892F49
S11324909927FC01EE0FFF1FE80FF91FEC5DFE4FBB
S11324A0518340836283832F99278FBF0FB7F8949A
S11324B01127C7010E948900FC0190810FBFF70119
S11324C083A5882309F472C09F3309F06FC0C70144
S11324D00E941E03882309F469C0F70183858A30AA
S11324E009F064C0F1E1DF1609F060C0C7010E9481
S11324F01E03882309F45AC02CE030E0E20EF31ED8
S1132500F0923101E092300144EF5FEFE40EF51EEA
S11325108091000190910101F7018587892F992706
S1132520848780A5992787FD9095E0913001F091EB
S113253031018383892F9927828380911A0188230B
S1132540A9F5F701168217828AE0838780917601C4
S113255090917701892B51F5F0927701E092760101
S1132560D08280910C018823E1F0838567812681E4
S113257010920C017727762F66273327622B732B53
S113258024E0A7010E94EA089927282F882349F00C
S113259081E080930C01109277011092760122233E
S11325A029F40E94700081E080931A01F0921C01CA
S11325B0E0921B018FB7F8949927109253018FBFB3
S11325C00E94190AD8C080914C01882361F520919A
S11325D09B0130919C0140919D0150919E01EFB768
S11325E0F894FF276091860170918701809188019A
S11325F090918901E0903401F09035010091360109
S1132600109137016E0D7F1D801F911FEFBF209326
S11326109B0130939C0140939D0150939E01109225
S11326204C010E9404030E941F023AC00E941F0230
S11326307B018C018FB7F8949927109273018FBF97
S11326408091820181FF97C080917A0190917B01F2
S1132650A0917C01B0917D01A8019701281B390B41
S11326604A0B5B0BDA01C90120917E0130917F0195
S11326704091800150918101281B390B4A0B5B0B5F
S11326802F3F8FEF38078FEF48078FE7580709F47C
S113269072C012161306140615062CF0C801B701F1
S11326A00E94460268C020939B0130939C01409392
S11326B09D0150939E0181E080934C01C801B701B4
S11326C00E94040358C090915D01809109019817FC
S11326D009F451C0909309019923D1F40091180190
S11326E01091190160916F01C8010E945808482F88
S11326F05527442309F43FC08FEF8093090160916B
S1132700180170911901F80183850E94940933C05E
S11327108FEF809309012FC02091F801812F82232C
S1132720C1F0E92FFF27EE0FFF1FEA58FE4F40814B
S1132730518111821082812F809528232093F801E2
S1132740992339F463E0CA010E947900110F91E0E2
S1132750E3CF9F5F983078F4110FDECF80910C01A6
S1132760E82FFF27EE0FFF1FEA58FE4F60817181AB
S113277041E00E945409A8960FB6F894DEBF0FBE3C
S1132780CDBFDF91CF911F910F91FF90EF90DF901C
S113279008958091F4018F3FB1F0282F3327F90178
S11327A0E65CFE4F80818093F4018F3F11F48093A7
S11327B002028FEF80832F3F31F0822F0E94DB0EC5
S11327C081E090E0089580E090E008951F93CF9316
S11327D0DF93CDB7DEB7E0970FB6F894DEBF0FBE38
S11327E0CDBF1FB7F8944FE050E06FEF70E08AE37D
S11327F091E00E9441188FEF8093F40180930202CC
S113280081E08EBD88E080BF83E083BF8CB59DB539
S11328104AE72CB53DB52817390708F4415044233D
S113282011F0C901F6CF92B782B78917E9F32CB535
S11328303DB592B782B78917E9F38CB59DB5821B74
S1132840930B409675E0969587957A95E1F790936A
S1132850F6018093F50113BE83B78EBD8EB580BF9C
S113286012BE1DBC1CBC8FEF86BF86B780937C0054
S113287080B7992787709070892BD1F7D29AD19A13
S1132880D09ADA9AD99AD89A15BA8FEF84BBD49889
S1132890DC981DBC1CBC87B7846087BF8EB5887F5D
S11328A084608EBD0E94C9138823E1F78FEF809363
S11328B05101E4E2F1E08FEF9FEF91838083128274
S11328C0339621E0E033F207C1F70E94620360937C
S11328D09A0180910001909101010196AA27BB27DA
S11328E08093590190935A01A0935B01B0935C01CA
S11328F080B7886080BF8BE083BF86EE81BF87B7D7
S1132900826087BF0E9481028FEB91E090931C014B
S113291080931B018E98B89A8C988FEF80936201F4
S113292010928A0110928B0110928C0110928D01E9
S1132930B89AD69AD59A8FB7F89499272091060118
S1132940309107018FBF30936801209367010E9483
S1132950170529A73AA74BA75CA76DA77EA78FA742
S113296098ABDE019196FE01B99688E001900D9234
S11329708150E1F7DE015196FE01B19688E00190A5
S11329800D928150E1F7DE015996FE01719688E0BF
S113299001900D928150E1F7A0E9B1E0FE01799632
S11329A088E001900D928150E1F780910801992708
S11329B090935501809354018FE1809385018AE1BE
S11329C0809398010E94170529A73AA74BA75CA7F3
S11329D06DA77EA78FA798ABDE019196FE01B996ED
S11329E088E001900D928150E1F7DE011196FE011D
S11329F0B19688E001900D928150E1F7DE011996BD
S1132A00FE01319688E001900D928150E1F7A0E932
S1132A10B1E0FE01399688E001900D928150E1F712
S1132A20A0E9B1E0FD0137969C9180818D9390835C
S1132A30319781E0E339F807B9F710924E0110920B
S1132A40FC011092560110928F010E94C913882331
S1132A50E1F7812F99278FBF78940E940E050E9479
S1132A60B6068FB7F894482F55274BC087B79927D8
S1132A7083709070892B19F4E5E0F0E013C080B7FF
S1132A80992787709070892BD1F781B792B7891BEA
S1132A908C3030F082B7853F18F4E3E0F0E002C0F8
S1132AA0E2E0F0E087B7887BC1F480917D008B7F02
S1132AB0A1F46E9912C08AB190919A00892B887101
S1132AC061F48091740082FD08C0379B03C081E0EB
S1132AD090E005C085E090E002C080E090E025B77A
S1132AE08E1708F4E82FFF27E457FF4FE491237E65
S1132AF02062E22BE5BF78948895F89485B78F7DA2
S1132B0085BF8091F4018F3F09F4B0CF282F33277C
S1132B10F901E65CFE4F80818093F4018F3F11F44C
S1132B20809302028FEF80832F3F09F49FCF4FBF22
S1132B30822F0E94DB0E95CF78941F920F920FB6CE
S1132B400F9211241F932F933F934F935F936F938F
S1132B507F938F939F93AF93BF93EF93FF9387B725
S1132B608F7E87BF78941FB7F89480915E0190910F
S1132B705F01A0916001B09161010097A105B105C9
S1132B8009F051C08091140190911501853091058F
S1132B9061F18630910530F48330910549F0049752
S1132BA081F51AC087309105F1F0089751F514C0EA
S1132BB0869B0FC084E090E09093150180931401EC
S1132BC00E94E20327E030E040E050E00E949F04CE
S1132BD018C00E944A0C15C00E94A706882389F4D5
S1132BE00E94740C0EC080E00AC089E00E94A30910
S1132BF081E00E94FB0483E00E94520787E00E9468
S1132C00950A80910F0190911001019771F482E06F
S1132C1090E09093100180930F01DE98DE9A80E09B
S1132C200E944F0602C00E94FF03812F99278FBF85
S1132C30FF91EF91BF91AF919F918F917F916F9190
S1132C405F914F913F912F911F910F900FBE0F9065
S1132C501F901895ACE2B0E0E0E3F6E10C94FD17A8
S1132C60222E332E442E552E662E772E882E992E04
S1132C70FE013196A8E01192AA95E9F729823A82D9
S1132C804B825C826D827E828F829886FE013996A9
S1132C90B8E01192BA95E9F7A986BA86CB86DC86A4
S1132CA0ED86FE860F87188B89819A81AB81BC8162
S1132CB089A79AA7ABA7BCA77C018D018FEF9FEFD3
S1132CC0A0E0B0E0E822F9220A231B2389A59AA5F3
S1132CD0ABA5BCA51D014424552489859A85AB85E3
S1132CE0BC858DA39EA3AFA3B8A75C016D018FEF34
S1132CF09FEFA0E0B0E0A822B922CA22DB228DA176
S1132D009EA1AFA1B8A53D0188249924C801B701AB
S1132D10A60195010E94DE1769A37AA38BA39CA345
S1132D20C801B701A40193010E94DE177B018C0145
S1132D30C201B101A60195010E94DE175B016C017D
S1132D40C201B101A40193010E94DE173B014C01B1
S1132D50EA0CFB1C0C1D1D1D89A19AA1ABA1BCA1F1
S1132D609D01442755272E0D3F1D401F511F2A1535
S1132D703B054C055D0540F480E090E0A1E0B0E047
S1132D80680E791E8A1E9B1ECA01AA27BB27860DC0
S1132D90971DA81DB91D8D8F9E8FAF8FB8A3A90154
S1132DA03327222789A19AA1ABA1BCA1A070B0703E
S1132DB0280F391F4A1F5B1F298F3A8F4B8F5C8F57
S1132DC0A98CBA8CCB8CDC8CED8CFE8C0F8D18A16D
S1132DD0FE01719698E011929A95E9F7ED8AFE8AC0
S1132DE00F8B188F2D813E814F8158856DA17EA157
S1132DF08FA198A50E94DE173B014C012D853E85CD
S1132E004F85588969A57AA58BA59CA50E94DE17D4
S1132E102D893E894F89588D260F371F481F591F0A
S1132E20260D371D481D591D2D8B3E8B4F8B588FFA
S1132E306D887E888F88988C2A2D3B2D4C2D5D2D96
S1132E40662D772D882D992DE2E1AC960C941918F6
S1132E50A0E1B0E0EEE2F7E10C94FD17222E332E50
S1132E60442E552E662E772E882E992E002309F493
S1132E7066C088E0FE01319611928A95E9F72983AC
S1132E803A834B835C836D837E838F829887E0E2F1
S1132E90E01B1E16CCF52D813E814F815885602F95
S1132EA0772767FD7095DA01C901062E04C0B6952F
S1132EB0A795979587950A94D2F78D879E87AF87B4
S1132EC0B88B04C0220F331F441F551FEA95D2F755
S1132ED089819A81AB81BC8104C0B695A7959795E9
S1132EE087956A95D2F7282B392B4A2B5B2B298798
S1132EF03A874B875C8729843A844B845C846D844D
S1132F007E848F8498881BC01D861E861F86188A1F
S1132F102E2F332727FD3095309521953F4F8D81F6
S1132F209E81AF81B88504C0B695A795979587957E
S1132F302A95D2F789879A87AB87BC87DCCF222D65
S1132F40332D442D552D662D772D882D992DE2E1B5
S1132F5060960C941918991B79E004C0991F961770
S1132F6008F0961B881F7A95C9F780950895AA1BC7
S1132F70BB1B51E107C0AA1FBB1FA617B70710F060
S1132F80A61BB70B881F991F5A95A9F78095909592
S1132F90BC01CD01089597FB092E07260AD077FDC1
S1132FA004D0E5DF06D000201AF4709561957F4FB8
S1132FB00895F6F7909581959F4F0895629FD001EB
S1132FC0739FF001829FE00DF11D649FE00DF11DE0
S1132FD0929FF00D839FF00D749FF00D659FF00D8F
S1132FE09927729FB00DE11DF91F639FB00DE11D7C
S1132FF0F91FBD01CF01112408952F923F924F92E2
S11330005F926F927F928F929F92AF92BF92CF9274
S1133010DF92EF92FF920F931F93CF93DF93CDB77D
S1133020DEB7CA1BDB0B0FB6F894DEBF0FBECDBFF5
S113303009942A88398848885F846E847D848C84C6
S11330409B84AA84B984C884DF80EE80FD800C81CF
S11330501B81AA81B981CE0FD11D0FB6F894DEBFB2
S11330600FBECDBFED010895FB01DC0104C08D91BD
S11330700190801921F441505040C8F7881B990BE6
S11330800895DC0101C06D9341505040E0F708956C
S1053090FFCF6C
S11130920100FFFFFFFF010022FFFFFF01000E
S9030000FC
