:100000000C9449000C94E9040C94F3040C94FD0442
:100010000C9407050C9411050C941B050C944F06C9
:100020000C9425050C9468000C9468000C944814FA
:100030000C94E6150C94B3040C94C9040C942F058D
:100040000C94A2040C94EB0C0C9468000C946800C3
:100050000C9468000C9468000C9468000C94680080
:100060000C94BE040C9468000C9468000C94680016
:100070000C9468000C9468000C9468000C94680060
:100080000C9468000C9468000C94680000081C181C
:10009000141011241FBECFEFD0E1DEBFCDBF11E0A1
:1000A000A0E0B1E0E0EDF1E300E00BBF02C007909B
:1000B0000D92AE30B107D9F712E0AEE0B1E001C069
:1000C0001D92A834B107E1F70E944A120C94E71878
:1000D0000C9400008FB7F894992708958FBF089566
:1000E0002FB7F89433278BB392E089278BBB2FBFB0
:1000F0008091C5019091C60101969093C6018093AD
:10010000C5012091AA013091AB01281739074CF4A1
:10011000809100019091010101969093C601809316
:10012000C5010895FC0182819927582F44278181B8
:100130009927482B592BCA01892F9927869586958F
:10014000837090708230910559F08330910559F099
:10015000892B19F420E030E008C02CE93FEF05C0FE
:1001600022E030E002C028E030E0CA0184E0989F3D
:10017000812D992711248230910559F08330910502
:1001800059F0892B19F480E090E008C08CE99FEFCA
:1001900005C082E090E002C088E090E0280F391F9F
:1001A0002A5F3F4FCF01820F931F0895282F9FB7DB
:1001B000F894662349F0E82FFF27E253FE4F808131
:1001C000882311F021E006C0E22FFF27E253FE4F03
:1001D000608320E0892F99278FBF822F9927089568
:1001E000E82F8FB7F894282F332790E0FF27E253AA
:1001F000FE4F8081861709F491E02FBF892F992740
:100200000895882311F06E9A08956E9808958823B2
:1002100011F06F9A08956F98089580E00E9401018F
:10022000BA9ABB98B99AB89A6C9A80E00E94070172
:100230006B986A9881E00E940101709A8DB18C7F61
:100240008DB908950F931F93CF93DF93182F8FB716
:10025000F894C82FDD270C2F61E080E00E94D600C3
:10026000882321F0CFBF85E090E024C08091050174
:100270008823A1F480911301823081F409C082E0C7
:1002800080931301109205010E940D01B89AC09845
:100290001093020180E00FBF99270CC080911301D9
:1002A000882369F38FB7F89499271092CE018FBFF6
:1002B00081E0F1CFDF91CF911F910F910895282F09
:1002C0009FB7F894E82FFF27E55CFE4F80818F3FB2
:1002D00081F4E0914602E21771F40BC020933802DA
:1002E00004C0FF27E55CFE4F20832093460220E0F8
:1002F00007C025E005C0809138028F3F91F7EECF0F
:10030000892F99278FBF822F992708951F93182F20
:1003100081E00E9401011FB9779BFECF8FB1992721
:100320001F9108958F929F92AF92BF92CF92DF92CA
:10033000EF92FF920F931F93CF93DF938FB7F894B1
:100340009927C0904102D09042028090C7019090BE
:10035000C801C091AD01D091AE0120911C01309136
:100360001D01EAE0AE2EB12CAC0EBD1E2A153B05D8
:1003700008F459018FBF7401EC0EFD1E86010C0FAD
:100380001D1F14C0C114D10419F0F801808101C0EF
:1003900080E00E9486018114910411F0F7018083AE
:1003A00021960894E11CF11C0F5F1F4FC5010197B6
:1003B000C817D90738F381E00E9407019FB7F89466
:1003C000C114D10431F0CC0EDD1EF60180818FB94D
:1003D00001C01FB8D093AE01C093AD01892F9927FA
:1003E0008FBF80E090E0DF91CF911F910F91FF9040
:1003F000EF90DF90CF90BF90AF909F908F90089537
:100400002FB7F894332750931D0140931C0190930C
:100410004202809341027093C8016093C701109219
:10042000AE011092AD012FBF452B29F08FB10E9474
:1004300092019927089587E00E945F0180E090E093
:1004400008958FB7F89499271092D0018FBF08951F
:100450007FB7F89462B720911F013091200140913D
:1004600021015091220106B601FE0FC081B792B75B
:10047000280F311D411D511D2F5F3F4F4F4F5F4FC3
:10048000290F311D411D511D04C0260F311D411D75
:10049000511D872F99278FBFCA01B9010895DF9297
:1004A000EF92FF920F931F938FB7F894282F332763
:1004B000D22E91B782B746B7981711F041FF02C00C
:1004C0002FBF6AC08091AC018823E1F10E9428020D
:1004D000E090CA01F090CB010091CC011091CD01C8
:1004E000209131013091320140913301509134011A
:1004F0006E197F09800B910B6217730784079507AC
:1005000020F01092AC0171E01EC02E0D3F1D401F67
:10051000511F80911F0190912001A0912101B09164
:100520002201281B390B4A0B5B0B273E3105410585
:10053000510540F4822F223010F070E005C070E0C9
:1005400082E002C070E086EE682F615000B601FCC8
:10055000FDCF82B7681709F46F5F20911F013091BA
:1005600020014091210150912201DA01C901019637
:10057000A11DB11D860F911DA11DB11D82179307ED
:10058000A407B50710F4622F609561BFDFBE772323
:1005900019F08AE00E945F011F910F91FF90EF9088
:1005A000DF900895AFB7F894BB27E1E0E093AC018A
:1005B0006093CA017093CB018093CC019093CD01DD
:1005C0002093310130933201409333015093340131
:1005D000AFBF0E944F02089580E8809335011092CA
:1005E000560110923B021092370210925201089568
:1005F000CF93DF93FC0115A6DC019E96ED011B82D3
:100600001A82198280E886A7DF91CF9108952F92F0
:100610003F924F925F926F927F928F929F92AF9292
:10062000BF92CF92DF92EF92FF920F931F93CF93DF
:10063000DF93CDB7DEB728970FB6F894DEBF0FBEB5
:10064000CDBF20905C0130905D0140905E015090E4
:100650005F01662477248824BEE4AB2EA3E8BA2E7B
:10066000CC24DD24EE24FF2400E010E0222D332DE5
:10067000442D552D662D772D882D90E00E947416FF
:1006800029833A834B835C836D837E838F83988732
:10069000822E932EA42EB52E2401350100E20E9455
:1006A0007217A22EB32EC42ED52EC301B201969579
:1006B0008795779567956A0D7B1D8C1D9D1D97FF0E
:1006C00005C09F776F5F7F4F8F4F9F4F60935C0197
:1006D00070935D0180935E0190935F0128960FB641
:1006E000F894DEBF0FBECDBFDF91CF911F910F9168
:1006F000FF90EF90DF90CF90BF90AF909F908F9042
:100700007F906F905F904F903F902F9008958FB79C
:10071000F8946091B1017091B2012CB53DB506B667
:1007200002FE04C06F5F7F4F2CB53DB599278FBF88
:1007300088279927CB017727662744275527622BDF
:10074000732B842B952B0895EF92FF920F931F9399
:100750000E9487037B018C01209166013091670123
:10076000409168015091690180916101909162010D
:10077000A0916301B0916401820F931FA41FB51F64
:10078000E216F3060407150730F082179307A40753
:10079000B50758F005C082179307A407B507E0F521
:1007A000E816F9060A071B07B8F59C01AD012E19DA
:1007B0003F09400B510B213060E8360760E04607E7
:1007C00060E0560768F180E090E8A0E0B0E0E80E55
:1007D000F91E0A1F1B1FE0926601F0926701009349
:1007E00068011093690180E090E8AFEFBFEFE80E79
:1007F000F91E0A1F1B1F20503048404050402093D4
:10080000610130936201409363015093640120E0E1
:1008100030E840E050E014C020E030E040E050E03C
:100820008093660190936701A0936801B09369017A
:1008300010926101109262011092630110926401A2
:10084000A901B7012CB53DB5C9018E199F090396C1
:100850008417950720F0B9016D5F7F4F02C0640FC8
:10086000751F6115710511F461E070E06150704011
:100870007BBD6ABD80E186BF87B7806187BF1F915E
:100880000F91FF90EF9008950F931F930FB7F89477
:1008900011276093660170936701809368019093BC
:1008A0006901209361013093620140936301509389
:1008B00064010E94A4030FBF1F910F91089597B781
:1008C0009F7D97BF90E296BF882319F08EB5806414
:1008D00002C08EB58F7B8EBD87B7806287BF80E0F8
:1008E00090E00895AF92BF92CF92DF92EF92FF9285
:1008F0000F931F93CF93DF93CDB7DEB728970FB633
:10090000F894DEBF0FBECDBF20E070E0E0910001A3
:10091000F091010132E14DE65CE46FE48091010168
:100920009E2F28960FB6F894DEBF0FBECDBFDF9185
:10093000CF911F910F91FF90EF90DF90CF90BF90DC
:10094000AF9008951F920F920FB60F9211248F93BC
:1009500083B783BF00B600FCFDCF8F910F900FBE11
:100960000F901F90189578941F920F920FB60F92C8
:1009700011240F900FBE0F901F90189578941F921E
:100980000F920FB60F9211240F900FBE0F901F9071
:10099000189578941F920F920FB60F9211242F93EF
:1009A0003F938F939F932FB7F89433278091B10192
:1009B0009091B20101969093B2018093B1012FBF43
:1009C0009F918F913F912F910F900FBE0F901F908D
:1009D00018951F920F920FB60F9211240F900FBE11
:1009E0000F901F9018951F920F920FB60F9211241F
:1009F0000F900FBE0F901F9018951F920F920FB679
:100A00000F9211240F900FBE0F901F9018951F92F8
:100A10000F920FB60F9211240F900FBE0F901F90E0
:100A200018951F920F920FB60F9211240F900FBEC0
:100A30000F901F9018951F920F920FB60F921124CE
:100A40000F900FBE0F901F9018951F920F920FB628
:100A50000F9211240F900FBE0F901F9018951F92A8
:100A60000F920FB60F9211242F933F934F935F93E2
:100A70006F937F938F939F93AF93BF93EF93FF9366
:100A800083B783BF00B600FCFDCF81B799270196DD
:100A9000AA27BB2720911F013091200140912101FD
:100AA00050912201280F391F4A1F5B1F20931F01FD
:100AB00030932001409321015093220178940E94A9
:100AC0004F02FF91EF91BF91AF919F918F917F91D5
:100AD0006F915F914F913F912F910F900FBE0F90AB
:100AE0001F9018950F931F93182F0FB7F89461E07C
:100AF00080E00E94D600882371F510930201809156
:100B000005018823A9F580911301823089F586E0DB
:100B10000CC00E940D0180911301882349F481E0EB
:100B2000809313011092530188E00E945F012AC054
:100B3000809165018F3F31F5E0910401EE2311F1C1
:100B40001CC01092030104C0FF27EB59FE4F108216
:100B50001092040117C081E090E002C0880F991F35
:100B60001A95E2F720911201282B209312010AC056
:100B7000809113018823E1F6CCCF809103018F3F50
:100B800019F7DFCF802F99278FBF80E090E01F916A
:100B90000F9108951F9383E00E9422019927182F37
:100BA000882319F083E00E947205812F99271F91F5
:100BB00008951F93CF93DF93182F8FB7F894C82F02
:100BC000DD2760E080E00E94F000882321F0CFBFA5
:100BD00080E090E005C0CFBF812F0E948601992759
:100BE000DF91CF911F910895EF92FF920F931F9382
:100BF000CF93DF93182F7B01042F8FB7F894C82F62
:100C0000DD2760E080E00E94F000882321F0CFBF64
:100C100080E090E014C0CFBF1064812F992790939B
:100C2000A3018093A2010E948601182F402F55270F
:100C3000B70180E090E00E940002812F9927DF91A8
:100C4000CF911F910F91FF90EF900895C098609100
:100C50001A0170911B0141E08FE30E94F405089591
:100C600082E090E090934D0180934C0181E080936D
:100C7000560120E030E080910201843011F421E03F
:100C800030E0232B29F484E00E942201882319F408
:100C90000E942606089584E00E94720508951F921E
:100CA0000F920FB60F9211242F933F934F935F93A0
:100CB0006F937F938F939F93AF93BF93EF93FF9324
:100CC00080914C0190914D01019749F482E090E0B0
:100CD00090934D0180934C010E94300605C0809195
:100CE00052018F5F80935201FF91EF91BF91AF91BD
:100CF0009F918F917F916F915F914F913F912F9134
:100D00000F900FBE0F901F901895CF92DF92EF9229
:100D1000FF920F931F93CF93DF938C01F62E6A01FE
:100D2000E22E8FB7F894C82FDD2760E080E00E94A4
:100D3000F000882321F0CFBF80E090E01EC0CFBF3D
:100D40000F0D111D802F80680E948601F82E1695C8
:100D50000795802F807C0E9486010E2D0AC0EE2D03
:100D6000FF27E01BF109EC0DFD1D80810E9486012B
:100D700001500023A1F78F2D9927DF91CF911F916B
:100D80000F91FF90EF90DF90CF900895CF93DF9376
:100D9000CDB7DEB72C970FB6F894DEBF0FBECDBF30
:100DA0008FB7F894282FAE014F5F5F4FDA01E4ED63
:100DB000F1E088E001900D928150E1F780915701B8
:100DC000909158018987892F99278A8780919E0160
:100DD00090919F018B87892F99278C872FBF2CE0BB
:100DE00060E080E691E00E9485062C960FB6F894AC
:100DF000DEBF0FBECDBFDF91CF9108951F938091CD
:100E00001201882309F04BC0109102011F3F09F025
:100E100046C060E00E94F000882309F440C081E0F1
:100E20008093DD0180913A018823E1F11092DD0188
:100E300085E090E045C0923069F5C09A8091030149
:100E400020E030E08F3F11F421E030E0232BE9F483
:100E5000109305018F3F19F42FEF30E00DC0282FBC
:100E60003327F901EB59FE4F8081809303018F3FB7
:100E700011F41093040110832093530181E08093B7
:100E8000130188E00E945F0105C0109305011092D4
:100E9000130111C080911301882369F00FC081E014
:100EA00090E00EC08091050190911301882319F202
:100EB000923021F0EFCF80E00E94010180E090E0CD
:100EC0001F9108951F93CF93DF939FB7F894C92F75
:100ED000DD271C2F90910201981721F0CFBF81E0F0
:100EE00090E03AC08FEF80930201309112013323DA
:100EF000F1F48FB7F89499271092CE018FBF0E941A
:100F0000FE06CFBF11C02093020181E090E002C035
:100F1000880F991F4A95E2F7809538233093120184
:100F200086E00E945F011FBF80E090E015C080E076
:100F300065E0E32FFF270E944A18292F492F5527E4
:100F4000CF01042E02C0959587950A94E2F780FDA3
:100F5000DACF822F8F5FEFCFDF91CF911F9108956E
:100F60001F93CF93DF938FB7F894C82FDD271C2FE3
:100F700080914C0190914D01892B29F484E00E94CD
:100F80006207CFBF1EC01092560180915201882384
:100F900011F0B79904C00E9908C0882319F0815048
:100FA000809352010E9430060BC081E090E0909344
:100FB0004D0180934C011092520184E00E9462071F
:100FC0001FBFDF91CF911F9108950E94EC02C09A3C
:100FD000C09888E00E94D90588E00E94D905C09A8F
:100FE00084E00E9462070E94B0070895FF920F9369
:100FF0001F93CF93DF93F82E8B018FB7F894C82FF0
:10100000DD2760E080E00E94F000882321F0CFBF60
:1010100080E090E00CC0CFBF8F2D0E948601812F11
:1010200099270E948601802F0E9486019927DF91CF
:10103000CF911F910F91FF9008951F931FB7F894C0
:1010400080915101882319F460E070E009C060E0EC
:1010500080914002882309F461E081E068277727C6
:1010600080915901882319F480E090E00AC090E053
:101070008091D301882309F491E081E09827892F9A
:101080009927762F6627770F770F770FF4E0880F71
:10109000991FFA95E1F7826E9262682B792B81E1B4
:1010A0000E94F607812F99278FBF1F9108958FB750
:1010B000F89499276091DC018FBF85E0689FB001AB
:1010C0001124625D7E4F706488E10E94F6070895E6
:1010D000EF92FF921F93CF93DF93E0905A01F0902D
:1010E0005B01F70182A59927182F882309F41FE1D6
:1010F000C09880915001811749F0612F77276F7157
:101100007070606E706885E10E94F6071093500160
:10111000F70110818FB7F894C82FDD2760E080E0D9
:101120000E94F000882311F0CFBF12C0CFBF8EE322
:1011300090E09093A3018093A2018EE30E94860128
:101140001150412F552760E070E0C7010E94000256
:10115000DF91CF911F91FF90EF9008950F931F9310
:10116000CF93DF93EC010FB7F89411270E94920000
:10117000FC018FE380830FBF10923E0210923D026C
:1011800061E082E00E94D600882319F085E090E0BB
:1011900072C08091DE018F5F8093DE0181508B836E
:1011A0008FB7F894082F112762E081E00E94F000C9
:1011B000882329F40FBF0E94210281E05BC08FB712
:1011C000F894992724E02093CF018FBFD093A901F1
:1011D000C093A8010FBFFE01319681812981992713
:1011E000982F88273327822B932B80729C7C8983AE
:1011F000892F992781832981982F88273327216474
:10120000822B932B8983892F992781831CA618A66B
:1012100019A619AA18AA1FA680E88EA761E06093F4
:10122000D2014091A8015091A9018FB7F894282FBD
:10123000332780911401909115018830910511F0A8
:10124000019711F02FBF15C082E090E09093150137
:10125000809314016093470250935B0140935A01BD
:1012600010921E012FBF0E94CA05882311F40E940C
:10127000680880E09927DF91CF911F910F91089521
:10128000CF93DF93DA01422F2D3118F082E090E006
:101290005EC0ED018B876E83872F99278F832FB7D1
:1012A000F894332780915701909158012FBFFD0189
:1012B0008483892F992785832FB7F89433278091CA
:1012C0000601909107012FBF8887892F9927898769
:1012D0003196818129819927982F88273327206487
:1012E0003868822B932B8983892F99278183435FC9
:1012F0004C934D5080910901882359F010920901B7
:10130000642FCD010E94AE089927282F8823A9F4C5
:1013100017C0842F99279093A7018093A601B093BB
:101320001901A09318018CE00E945F0180910901CE
:10133000882349F489E090E00AC08FEF8093090187
:10134000822F992704C01092600180E090E0DF9125
:10135000CF910895AF92BF92CF92DF92EF92FF921A
:101360000F931F935B016C016091BB0161FF20C073
:101370002091B3013091B4014091B5015091B60173
:10138000E090B701F090B8010091B9011091BA0155
:10139000D601C501821B930BA40BB50B8E159F05BF
:1013A000A007B10728F0E3EBF1E0A0E0B0E022C035
:1013B000ECEBF1E06091C40161FF70C02091BC01D1
:1013C0003091BD014091BE015091BF01E090C0013C
:1013D000F090C1010091C2011091C301A21AB30A99
:1013E000C40AD50AAE14BF04C006D10608F456C01C
:1013F000A1E0B0E060FF04C080858D7F808708C0D9
:101400002E0D3F1D401F511F208331834283538384
:10141000A13009F043C080910001909101018093B7
:101420007701892F99278093760110927901109284
:1014300078012091C5013091C6014AE651E0209320
:101440007001632F7727609371018AE080937501A3
:101450008091AF019091B001892B01F55093B001BB
:101460004093AF0181E180936A0180910C01882350
:10147000A9F0762F6627822F9927682B792B109257
:101480000C0124E08AE00E944009882339F081E0C1
:1014900080930C011092B0011092AF018BE00E947A
:1014A0005F011F910F91FF90EF90DF90CF90BF9061
:1014B000AF9008950F931F93CF93DF93182FEB01F5
:1014C000042FE82FFF27EE0FFF1FE155FE4F11827B
:1014D000108210920C01E091AF01F091B0013097B1
:1014E00021F080913C0280FF0EC081E080930C01CE
:1014F00003C08EE00E945F011123B9F4602FCE017A
:101500000E94700012C020812D50332767817727F9
:10151000762F662786819927682B792BAF018385E3
:101520000E944009882341F3E4CFDF91CF911F91BE
:101530000F9108959B0180910C01882349F46091DB
:10154000AF017091B0016217730711F40E945A0A3B
:1015500008951F93182F81E090E0909315018093D8
:10156000140110923A010E94FE068FB7F894992751
:1015700010930E018FBF82E00E945F011F910895BA
:10158000CF92DF92EF92FF920F931F93CFB6F89412
:10159000DD240E940703DC01CB0166E470E00E94B9
:1015A00056182BE0E22EF12CE80EF91EF0924402C0
:1015B000E09243020E94870300271127A8019701A8
:1015C0000E944404CFBE1F910F91FF90EF90DF90D7
:1015D000CF9008951F93CF93DF938FB7F894C82FC0
:1015E000DD271C2F80911401909115010897C9F4F3
:1015F00089E00E94D90583E00E946207C09A81E0D9
:1016000090E090931501809314018FB7F894992777
:1016100023E020930E018FBF82E00E945F01CFBFC5
:1016200030C0C09880914702882311F085E001C046
:1016300084E00E94D90583FD09C080E00E94D9059D
:1016400083FF04C085E090E020E003C083E090E0E9
:1016500021E09093150180931401C09A1FBF2223AB
:1016600041F010921E0183E00E9462070E94C00AAE
:1016700008C00E94870320E431E040E050E00E946F
:101680004404DF91CF911F910895EF92FF920F9341
:101690001F93CF93DF938B018091A2019091A301BF
:1016A00086FF40C18F7B8F3309F08EC1C0911A0134
:1016B000D0911B01588150934E0180914C01909123
:1016C0004D018530910509F443C08630910509F438
:1016D0008AC0029709F01FC185E090E090934D0108
:1016E00080934C0140913501852F99270196242F35
:1016F0003327281739074CF1B79906C00E9904C053
:10170000451B41504093350140914E014A32E8F467
:101710004423A1F0BE016F5F7F4F483018F047E0CF
:1017200050E007C086E090E090934D0180934C011B
:10173000552780E090E00E94000246C110925601B9
:10174000C09A84E00E946207E3C00E94E5073CC1A2
:1017500086E090E090934D0180934C018091590177
:10176000882309F439C08091D3018823A9F58981A0
:1017700085FF32C08F814E812FB7F8943327609157
:101780009E0170919F012FBF9927982F8827552779
:10179000842B952B8617970759F08F812E819927D7
:1017A000982F88273327822B932B8F5F9F4FA1F48D
:1017B00089818770813081F4C09AC0988AE00E9444
:1017C000D905C09AC09840914E0147502896BE0155
:1017D0008FE30E94F405F8C040914E014750552711
:1017E0002896BE01A6CFC09A80915201882339F471
:1017F00084E00E94620780915201882311F0B7991A
:101800000AC00E9B08C090913702992321F0809165
:101810004E018B3038F480911A0190911B010E9487
:10182000F8023DC0913001F5E0913B02FF27EE0F39
:10183000FF1FEE0FFF1FED51FE4F208131814281CE
:101840005381E0911A01F0911B0121ABBB27A52F19
:10185000942F832F80ABCA01AA27BB2787A7252FE8
:1018600033274427552726A780913B0299270196C5
:1018700068E070E00E946A1880933B028091370212
:10188000815080933702882351F080911A01909102
:101890001B010E94F80210923B02109237028091C5
:1018A0004E01FE01E80FF11D808187FF31C0012B41
:1018B00079F169816770E0911A01F0911B01623042
:1018C00019F5A0915A01B0915B01109709F180912F
:1018D0001401909115010797D9F4ED019B81838143
:1018E0009817B1F487B78F7E87BF908181E08CA76E
:1018F000E90FF11D8291319688A780818F7789A7A2
:1019000080E00E94A90A04C0613011F489E02AC075
:101910000E94B00759C010925601C09A84E00E94FC
:10192000620752C08E3309F04FC0C09A80911401F3
:10193000909115010897C9F4C09889E00E94D905D3
:10194000C09A83E00E94620781E090E090931501C5
:10195000809314018FB7F894992723E020930E0108
:101960008FBF82E00E945F012FC0809147028823D1
:1019700049F484E090E090931501809314010E9453
:10198000EA0A22C083E00E94620783E090E090931D
:101990001501809314010E940703DC01CB0166E36B
:1019A00071E00E9456183BE0E32EF12CE80EF91E80
:1019B000F0923001E0922F010E9487030027112747
:1019C000A80197010E944404DF91CF911F910F91CC
:1019D000FF90EF9008951F920F920FB60F9211246F
:1019E0002F933F934F935F936F937F938F939F9327
:1019F000AF93BF93EF93FF932FB1E091C701F091A5
:101A0000C801309739F08091AD019091AE01E80F97
:101A1000F91F20838091AD019091AE0101969093C2
:101A2000AE018093AD0180E00E94070140911C014E
:101A300050911D018091AD019091AE0184179507E1
:101A400018F40E9492011CC06091C7017091C801F6
:101A500080914102909142021092C8011092C701F8
:101A6000109242021092410210921D0110921C012C
:101A70001092AE011092AD012FB120E00E94450BF3
:101A8000FF91EF91BF91AF919F918F917F916F9156
:101A90005F914F913F912F910F900FBE0F901F902C
:101AA0001895AF92BF92CF92DF92EF92FF920F9371
:101AB0001F93CF93DF93CDB7DEB7A8970FB6F894F7
:101AC000DEBF0FBECDBF873009F412C2883098F454
:101AD000833009F4F5C0843038F4813009F499C0BA
:101AE000823008F09CC024C0853009F40BC18630D8
:101AF00008F043C100C18B3009F4C6C38C3038F400
:101B0000893009F42CC28A3008F08BC314C28D309E
:101B100039F08D3008F438C48E3009F08DC47FC49C
:101B200080913C02882309F487C490E011E055C4F9
:101B30000FB7F894112781E00E945F0461E0E62E60
:101B4000F12CF0921501E0921401109216011092FE
:101B50003A01109250010FBF0FB7F89411270E945D
:101B6000EC02F0924D01E0924C011092560189B7BF
:101B70008F7B89BF80E488BF8AB780628ABF8AB7BB
:101B80008F7E8ABF89B7806489BF0FBF8FB7F894F3
:101B9000082F112780910F0190911001049719F4DB
:101BA00083E00E94D9050FBF0FB7F8941127C09AA0
:101BB00080E00E9462070FBF8FB7F894992722E058
:101BC0002093CF018FBF60913601709137018091D2
:101BD0003801909139010E94F5177B018C010E9418
:101BE00028026093BC017093BD018093BE01909365
:101BF000BF01E092C001F092C1010093C2011093B5
:101C0000C3018091C4018E7F82608093C4018BE008
:101C1000B1C08FB7F89499271092CF0171C08FB7D8
:101C2000F8949927F0900E018FBF63E081E00E9445
:101C3000F000882359F10FB7F8941127109215017D
:101C40001092140187B78F7E87BF87B78F7D87BFBC
:101C500083E00E946207C09A0FBF0FB7F894112764
:101C600010924D0110924C010E94EC02C09A89B76B
:101C70008F7B89BF0FBF1092100110920F01DE9869
:101C8000DD98DE9A81E00E945F0107C08FB7F8946B
:101C9000992722E02093CF018FBF0091A8011091D6
:101CA000A9010E94210280913D0290913E02892B60
:101CB00009F0C2C38FEF809309014F2DB80184C38F
:101CC0008FB7F894282F3327122F8091450288234D
:101CD00009F581E08093450280910F0190911001F8
:101CE000049721F481E00E94720503C084E00E9401
:101CF0005F011FBFA1C38FB7F894992710924502C7
:101D00008FBF9AC38FB7F894282F33278091110182
:101D1000882311F02FBF90C32FBF80B3992756E0BF
:101D2000969587955A95E1F7182F11709091A0011B
:101D30008091A1018917D9F01917C9F484E090E0C6
:101D40009093100180930F018FB7F894992721E0A9
:101D5000209311018FBF60E070E08DE10E94F607D3
:101D60000E94C606C09AC09880E00E945F0110934E
:101D7000A10185E00E945F015FC38FB7F8949927A6
:101D8000109102018FBF123009F465C0133030F496
:101D9000112359F0113009F04FC348C0133009F432
:101DA00074C0143009F048C3A0C0C0988FB7F8942D
:101DB000082F112780910F01909110010297A1F532
:101DC00083E090E09093100180930F0168E170E050
:101DD0008DE10E94F60781E08093A001109211012D
:101DE00080B3992746E0969587954A95E1F78170EB
:101DF00090708093A10185E00E945F0181E00E94C4
:101E0000D9056FE772E08CE10E94F6070E9457083F
:101E10000E941D0866E57AE287E10E94F6076FEFEF
:101E200070E885E10E94F6070FBF06C3C09886E000
:101E30000E94D9050E9457080E941D080E94C606EC
:101E4000C09AC09883E00E94D905C09A81E00E94A0
:101E5000620784E08FCFC0988FB7F894082F1127BE
:101E600060E080E00E94F000882311F00FBF0AC0FC
:101E70000FBF83E50E94860180E00E94860180E01A
:101E80000E948601C09A82E02DC08FB7F8949927EE
:101E9000209114018FBF243039F0283041F02230D6
:101EA00001F50E946808C8C20E94EA0AC5C2C0982B
:101EB00089E00E94D905C09A83E00E9462078FB72B
:101EC000F894992721E030E0309315012093140114
:101ED0008FBF8FB7F894992710930E018FBF82E0C0
:101EE00049CF83E00E946207A7C20E942606A4C2CF
:101EF0000FB7F894112740911C0150911D0160917A
:101F0000C7017091C80180914102909142021092E4
:101F1000C8011092C7011092420210924102109221
:101F20001D0110921C011092AE011092AD0120E033
:101F30000E94450B79CF2FB7F89433278091530136
:101F40008093050182E0809313012FBF80910501EA
:101F5000882309F071C2B89AC09886E00BCFA0918F
:101F60001A01B0911B011C919D01210F311DF90136
:101F70008081881F8827881FFD0183A7F901808140
:101F80008F77FD0181A721503040F9018081FD014B
:101F900080A7A0911A01B0911B01FD0132818FB77A
:101FA000F8949927209151018FBF222309F490C002
:101FB000832F99279695879596958795837090702E
:101FC0008230910541F5878146812FB7F8943327F8
:101FD00060919E0170919F012FBF9927982F8827AC
:101FE0005527842B952B8617970719F481E090E0ED
:101FF0006CC0FD018781268140E050E09927982F31
:1020000088273327822B932B8F5F9F4F11F441E05A
:1020100050E0CA015AC0039709F0FAC09E012F5F31
:102020003F4F44ED51E088E0FA010190AF01F90122
:1020300001929F018150C1F79E012F5D3F4FAE017C
:102040004F5F5F4F88E0FA010190AF01F901019203
:102050009F018150C1F79E01275F3F4FAE014F5D49
:102060005F4F88E0FA010190AF01F90101929F01F1
:102070008150C1F79E012F5E3F4FAE01475F5F4F1A
:1020800088E0FA010190AF01F90101929F018150AE
:10209000C1F79E01275E3F4FAE014F5E5F4F88E064
:1020A000FA010190AF01F90101929F018150C1F73E
:1020B00048E050E0BE01675E7F4FCD0106960E946A
:1020C000D318892B09F0A4C003C0882309F4A0C049
:1020D0001D3008F49DC0E0901A01F0901B01F7013B
:1020E0002281822F992716E0969587951A95E1F718
:1020F000039719F468E070E002C062E070E0822F9C
:1021000099279695879596958795837090700397F4
:1021100019F488E090E002C082E090E026E030E030
:10212000E20EF31E40E050E020E030E0F701E80F5F
:10213000F91F8AEF9FEFE80EF91E05C08191480F45
:10214000511D2F5F3F4F26173707C4F3F7016381F7
:102150008FEF80933F028FB7F894782F20E030E024
:10216000E3E2F1E0808191818417950729F482816F
:10217000861731F120933F022F5F3F4F3396243073
:10218000310581F77FBF90913F023FB7F8949F3FA1
:1021900021F0809117018917A9F420911701822F4E
:1021A0009927FC01EE0FFF1FE80FF91FED5DFE4FB1
:1021B0005183408362832F5F2370209317010EC0E9
:1021C0007FBF22C0892F9927FC01EE0FFF1FE80F68
:1021D000F91FED5DFE4F518340836283832F992762
:1021E0008FBF0FB7F8941127C7010E949200FC011E
:1021F00090810FBFF70183A5882331F09F3321F42D
:102200008FB7F89499278FBFF0921B01E0921A01C3
:102210008FB7F8949927109256018FBF0E94B0078C
:102220000BC180914F01882361F52091DF0130912E
:10223000E0014091E1015091E201EFB7F894FF27EE
:102240006091CA017091CB018091CC019091CD0138
:10225000E0903101F090320100913301109134018E
:102260006E0D7F1D801F911FEFBF2093DF01309304
:10227000E0014093E1015093E20110924F010E946E
:10228000D2020E9428026DC00E9428025B016C01EC
:102290008FB7F89499271092AC018FBF8091BB0142
:1022A00081FF25C08091B3019091B401A091B50147
:1022B000B091B601A6019501281B390B4A0B5B0BA7
:1022C000E090B701F090B8010091B9011091BA0106
:1022D000E21AF30A040B150B3FEFE3163FEFF30688
:1022E0003FEF03073FE7130711F061E009C04FEF2D
:1022F000E42E4FEFF42E4FEF042F4FE7142F60E042
:102300008091C40181FF21C08091BC019091BD01E9
:10231000A091BE01B091BF01A6019501281B390B08
:102320004A0B5B0BDA01C9012091C0013091C10158
:102330004091C2015091C301281B390B4A0B5B0B22
:102340002E153F05400751072CF0662309F474C091
:10235000A801970112161306140615062CF0C601E3
:10236000B5010E94AA0968C02093DF013093E00103
:102370004093E1015093E20181E080934F01C60157
:10238000B5010E94D20258C090916001809109016C
:10239000981709F451C0909309019923D1F4009141
:1023A0001801109119016091A601C8010E94AE08A0
:1023B000482F5527442309F43FC08FEF809309012C
:1023C0006091180170911901F80183850E949A0AA1
:1023D00033C08FEF809309012FC020913C02812FE1
:1023E0008223C1F0E92FFF27EE0FFF1FE155FE4FBB
:1023F0004081518111821082812F80952823209362
:102400003C02992339F463E0CA010E947000110F65
:1024100091E0E3CF9F5F983078F4110FDECF809189
:102420000C01E82FFF27EE0FFF1FE155FE4F6081E3
:10243000718141E00E945A0AA8960FB6F894DEBF57
:102440000FBECDBFDF91CF911F910F91FF90EF9005
:10245000DF90CF90BF90AF900895809138028F3F6A
:10246000B1F0282F3327F901E55CFE4F808180937E
:1024700038028F3F11F4809346028FEF80832F3F05
:1024800031F0822F0E94510D81E090E0089580E0AC
:1024900090E008951F93CF93DF93CDB7DEB7E09719
:1024A0000FB6F894DEBF0FBECDBF1FB7F8944FE054
:1024B00050E06FEF70E08BE391E00E94E0188FEF47
:1024C000809338028093460281E08EBD88E080BF11
:1024D00083E083BF8CB59DB54AE72CB53DB5281781
:1024E000390708F44150442311F0C901F6CF92B7DF
:1024F00082B78917E9F32CB53DB592B782B7891732
:10250000E9F38CB59DB5821B930B409675E09695CB
:1025100087957A95E1F790933A028093390213BE3A
:1025200083B78EBD8EB580BF12BE1DBC1CBC8FEFA5
:1025300086BF86B780937C0080B79927877090709C
:10254000892BD1F7D29AD19AD09ADA9AD99AD89A75
:1025500015BA8FEF84BBD498DC981DBC1CBC87B720
:10256000846087BF8EB5887F84608EBD0E942D12E7
:102570008823E1F78FEF80935401E3E2F1E08FEFDE
:102580009FEF918380831282339621E0EF32F2072E
:10259000C1F70E9407036093DE01809100019091D2
:1025A00001010196AA27BB2780935C0190935D01EE
:1025B000A0935E01B0935F0180B7886080BF8BE01D
:1025C00083BF86EE81BF87B7826087BF0E944F02BC
:1025D00083E092E090931B0180931A018E98B89A41
:1025E0008C988FEF809365011092CE011092CF01ED
:1025F0001092D0011092D101B89AD69AD59A8FB77D
:10260000F894992720910601309107018FBF3093EC
:102610009F0120939E010E94720429A73AA74BA70D
:102620005CA76DA77EA78FA798ABDE019196FE01F0
:10263000B99688E001900D928150E1F7DE01519644
:10264000FE01B19688E001900D928150E1F7DE0124
:102650005996FE01719688E001900D928150E1F744
:10266000A4EDB1E0FE01799688E001900D928150D1
:10267000E1F78091080199279093580180935701C1
:102680008FE18093C9018AE18093DC010E9472048A
:1026900029A73AA74BA75CA76DA77EA78FA798ABE2
:1026A000DE019196FE01B99688E001900D9281506D
:1026B000E1F7DE011196FE01B19688E001900D92DE
:1026C0008150E1F7DE011996FE01319688E0019014
:1026D0000D928150E1F7A4EDB1E0FE01399688E05A
:1026E00001900D928150E1F7A4EDB1E0FD01379624
:1026F0009C9180818D939083319781E0E73DF8072D
:10270000B9F781E080935101109240028093590102
:102710001092D3010E942D128823E1F7812F99276F
:102720008FBF789483E090E09093C6018093C501B9
:1027300087E090E09093AB018093AA0185E090E060
:1027400090934B0180934A0180E090E0A8E4B3E4C9
:102750008093360190933701A0933801B0933901EB
:1027600061E081E00E94D6008823E9F48FB7F894F5
:10277000282F332780910F0190911001892B11F0A0
:102780002FBF1BC081E090E09093100180930F0158
:102790002FBFDD9A0E94870324E130E040E050E043
:1027A0000E9444040AC062E081E00E94F000882395
:1027B00021F461E081E00E94F0008FB7F894482F87
:1027C00055274BC087B7992783709070892B19F4D0
:1027D000E5E0F0E013C080B7992787709070892BEF
:1027E000D1F781B792B7891B8C3030F082B7853F23
:1027F00018F4E3E0F0E002C0E2E0F0E087B7887BA5
:10280000C1F480917D008B7FA1F46E9912C08AB1D2
:1028100090919A00892B887161F48091740082FDF7
:1028200008C0379B03C081E090E005C085E090E0E0
:1028300002C080E090E025B78E1708F4E82FFF274C
:10284000E457FF4FE491237E2062E22BE5BF7894AA
:102850008895F89485B78F7D85BF809138028F3F2A
:1028600009F4B0CF282F3327F901E55CFE4F8081B2
:10287000809338028F3F11F4809346028FEF80835C
:102880002F3F09F49FCF4FBF822F0E94510D95CF4C
:1028900078941F920F920FB60F9211242F923F92AD
:1028A0004F925F926F927F928F929F92AF92BF9260
:1028B000CF92DF92EF92FF920F931F932F933F934C
:1028C0004F935F936F937F938F939F93AF93BF9338
:1028D000CF93DF93EF93FF93C6B5D7B58FB7F89437
:1028E000282E0E9487039B012C1B3D0B4427552754
:1028F0002B013C01421A530A640A750A80911401A3
:10290000909115018530910521F0069709F0E0C0FE
:10291000BFC086E090E0909315018093140131E0F0
:10292000332E309255011092160180E00E945F0410
:10293000E0915A01F0915B0141AABB27A72D962D8A
:10294000852D80ABC301AA27BB2787A7872D992791
:10295000AA27BB2786A7E0915A01F0915B0185A5C4
:10296000882309F484C06081655077274F01860E63
:10297000971EF4012081E1808281A3809927AA27F4
:10298000BB27BA2FA92F982F8827332744275527ED
:10299000522F442733272227FF240027112787019E
:1029A000FF24EE242E293F29402B512BBB24CC247D
:1029B000DD242A293B294C295D29822B932BA42B2A
:1029C000B52B84199509A609B7098383292F3A2FB6
:1029D0004B2F552722839D014427552721838B2F79
:1029E0009927AA27BB278083C09824E0A40180E010
:1029F00090E00E948506C09AF4012081E1808281E6
:102A0000A3809927AA27BB27BA2FA92F982F8827F9
:102A1000332744275527522F442733272227FF24C3
:102A2000002711278701FF24EE242E293F29402B60
:102A3000512BBB24CC24DD242A293B294C295D2998
:102A4000822B932BA42BB52B840D951DA61DB71D92
:102A50008383292F3A2F4B2F552722839D0144270B
:102A6000552721838B2F9927AA27BB278083E091A5
:102A70005A01F0915B01818185FF02C030923A01D9
:102A800083E00E94620787B78F7E87BF84997AC0F0
:102A90001092550181E00E945F04E0915A01F0918B
:102AA0005B01818185FF0FC087E090E09093150165
:102AB000809314010E94870320E031E040E050E061
:102AC0000E94440403C080E00E94A90A849B5AC06B
:102AD00080911601882391F580915501882371F525
:102AE00011E0109355010E945F0480B320913702DA
:102AF000283098F4E0913B02E20FFF27E770F07076
:102B0000EE0FFF1FEE0FFF1FED51FE4F408251826F
:102B1000628273822F5F2093370210931601D09345
:102B2000A501C093A40184992DC09927E4E096954E
:102B30008795EA95E1F7182F117001C010E0809198
:102B400055018130F9F4109255010E945F041092F2
:102B500016011123B9F48091A4019091A501C81B1D
:102B6000D90B2A9778F480913702882319F0815085
:102B70008093370280915A0190915B01009711F088
:102B80000E94F8022FBEFF91EF91DF91CF91BF918C
:102B9000AF919F918F917F916F915F914F913F91F5
:102BA0002F911F910F91FF90EF90DF90CF90BF90EA
:102BB000AF909F908F907F906F905F904F903F90DD
:102BC0002F900F900FBE0F901F90189578941F9222
:102BD0000F920FB60F9211241F932F933F934F9391
:102BE0005F936F937F938F939F93AF93BF93EF9375
:102BF000FF9387B78F7E87BF78941FB7F894809133
:102C0000610190916201A0916301B091640100970C
:102C1000A105B10509F051C08091140190911501F1
:102C20008530910561F18630910530F4833091054E
:102C300049F0049781F51AC087309105F1F00897A3
:102C400051F514C0869B0FC084E090E0909315016D
:102C5000809314010E94870327E030E040E050E0B9
:102C60000E94440418C00E94C00A15C00E94CA05F0
:102C7000882389F40E94EA0A0EC080E00AC089E035
:102C80000E94D90581E00E945F0483E00E946207F0
:102C900087E00E94A90A80910F019091100101978D
:102CA00071F482E090E09093100180930F01DE9820
:102CB000DE9A80E00E94720502C00E94A403812F68
:102CC00099278FBFFF91EF91BF91AF919F918F9106
:102CD0007F916F915F914F913F912F911F910F9035
:102CE0000FBE0F901F901895ACE2B0E0EAE7F6E156
:102CF0000C949C18222E332E442E552E662E772EA1
:102D0000882E992EFE013196A8E01192AA95E9F736
:102D100029823A824B825C826D827E828F82988683
:102D2000FE013996B8E01192BA95E9F7A986BA86FC
:102D3000CB86DC86ED86FE860F87188B89819A818B
:102D4000AB81BC8189A79AA7ABA7BCA77C018D01E9
:102D50008FEF9FEFA0E0B0E0E822F9220A231B23C7
:102D600089A59AA5ABA5BCA51D0144245524898538
:102D70009A85AB85BC858DA39EA3AFA3B8A75C0144
:102D80006D018FEF9FEFA0E0B0E0A822B922CA2228
:102D9000DB228DA19EA1AFA1B8A53D018824992475
:102DA000C801B701A60195010E947D1869A37AA305
:102DB0008BA39CA3C801B701A40193010E947D18B5
:102DC0007B018C01C201B101A60195010E947D1811
:102DD0005B016C01C201B101A40193010E947D1845
:102DE0003B014C01EA0CFB1C0C1D1D1D89A19AA185
:102DF000ABA1BCA19D01442755272E0D3F1D401FAF
:102E0000511F2A153B054C055D0540F480E090E01C
:102E1000A1E0B0E0680E791E8A1E9B1ECA01AA2797
:102E2000BB27860D971DA81DB91D8D8F9E8FAF8F57
:102E3000B8A3A9013327222789A19AA1ABA1BCA1DC
:102E4000A070B070280F391F4A1F5B1F298F3A8F5F
:102E50004B8F5C8FA98CBA8CCB8CDC8CED8CFE8C70
:102E60000F8D18A1FE01719698E011929A95E9F7DD
:102E7000ED8AFE8A0F8B188F2D813E814F815885F8
:102E80006DA17EA18FA198A50E947D183B014C01E8
:102E90002D853E854F85588969A57AA58BA59CA56A
:102EA0000E947D182D893E894F89588D260F371F26
:102EB000481F591F260D371D481D591D2D8B3E8B50
:102EC0004F8B588F6D887E888F88988C2A2D3B2D4C
:102ED0004C2D5D2D662D772D882D992DE2E1AC9638
:102EE0000C94B818A0E1B0E0E8E7F7E10C949C1866
:102EF000222E332E442E552E662E772E882E992E76
:102F0000002309F466C088E0FE01319611928A958B
:102F1000E9F729833A834B835C836D837E838F82B9
:102F20009887E0E2E01B1E16CCF52D813E814F8193
:102F30005885602F772767FD7095DA01C901062E45
:102F400004C0B695A795979587950A94D2F78D8773
:102F50009E87AF87B88B04C0220F331F441F551FB5
:102F6000EA95D2F789819A81AB81BC8104C0B6957C
:102F7000A795979587956A95D2F7282B392B4A2BD9
:102F80005B2B29873A874B875C8729843A844B845B
:102F90005C846D847E848F8498881BC01D861E8609
:102FA0001F86188A2E2F332727FD309530952195BF
:102FB0003F4F8D819E81AF81B88504C0B695A7959E
:102FC000979587952A95D2F789879A87AB87BC878B
:102FD000DCCF222D332D442D552D662D772D882DB8
:102FE000992DE2E160960C94B81833D088F09F5781
:102FF00090F0B92F9927B751A0F0D1F0660F771F45
:10300000881F991F1AF0BA95C9F712C0B13081F024
:103010003AD0B1E0089537C0672F782F8827B85F7E
:1030200039F0B93FCCF3869577956795B395D9F785
:103030003EF490958095709561957F4F8F4F9F4F8F
:10304000089557FD9058440F551F59F05F3F71F098
:103050004795880F97FB991F61F09F3F79F08795FF
:103060000895121613061406551FF2CF4695F1DF88
:1030700008C0161617061806991FF1CF8695710518
:10308000610508940895E894BB2766277727CB014C
:1030900097F90895991B79E004C0991F961708F0D5
:1030A000961B881F7A95C9F780950895AA1BBB1BAC
:1030B00051E107C0AA1FBB1FA617B70710F0A61B38
:1030C000B70B881F991F5A95A9F780959095BC0159
:1030D000CD01089597FB092E07260AD077FD04D06D
:1030E000E5DF06D000201AF4709561957F4F0895B2
:1030F000F6F7909581959F4F0895629FD001739F39
:10310000F001829FE00DF11D649FE00DF11D929F83
:10311000F00D839FF00D749FF00D659FF00D9927C2
:10312000729FB00DE11DF91F639FB00DE11DF91FE6
:10313000BD01CF01112408952F923F924F925F92CB
:103140006F927F928F929F92AF92BF92CF92DF92B7
:10315000EF92FF920F931F93CF93DF93CDB7DEB71C
:10316000CA1BDB0B0FB6F894DEBF0FBECDBF0994B0
:103170002A88398848885F846E847D848C849B8407
:10318000AA84B984C884DF80EE80FD800C811B8115
:10319000AA81B981CE0FD11D0FB6F894DEBF0FBE44
:1031A000CDBFED010895FB01DC0104C08D910190BC
:1031B000801921F441505040C8F7881B990B08959D
:1031C000DC0101C06D9341505040E0F70895FFCFFE
:0E31D0000100FFFFFFFF010022FFFFFF0100D3
:00000001FF
